:020000040800F2
:10000000C00A00200D020008311B00085112000830
:100010002D1B00088D060008973100080000000025
:100020000000000000000000000000004520000863
:100030004D0E000800000000230200086D29000892
:1000400027020008270200082702000827020008EC
:1000500027020008270200082702000827020008DC
:1000600027020008270200082702000827020008CC
:1000700027020008270200082702000827020008BC
:1000800027020008270200082702000827020008AC
:10009000C1300008270200082702000827020008D4
:1000A000270200082702000827020008270200088C
:1000B000D1290008270200082702000827020008AB
:1000C000270200082702000827020008270200086C
:1000D000270200088D2B00082702000827020008CD
:1000E0002702000827020008572E000827020008F0
:1000F000270200082702000827020008270200083C
:10010000270200082702000827020008270200082B
:10011000270200082702000827020008270200081B
:10012000270200082702000827020008270200080B
:1001300000F002F800F05AF80AA090E8000C82449F
:100140008344AAF10107DA4501D100F04FF8AFF27C
:10015000090EBAE80F0013F0010F18BFFB1A43F0A5
:1001600001031847743C0000943C00000A444FF01F
:10017000000C10F8013B13F0070408BF10F8014B06
:100180001D1108BF10F8015B641E05D010F8016B4B
:10019000641E01F8016BF9D113F0080F1EBF10F8AF
:1001A000014BAD1C0C1B09D16D1E58BF01F801CBD2
:1001B000FAD505E014F8016B01F8016B6D1EF9D555
:1001C0009142D6D37047000000230024002500266A
:1001D000103A28BF78C1FBD8520728BF30C148BFAA
:1001E0000B6070471FB51FBD10B510BD00F071F852
:1001F0001146FFF7F7FF02F0EDFF00F08FF803B4B0
:10020000FFF7F2FF03BC00F097F8000009488047B1
:1002100009480047FEE7FEE7FEE7FEE7FEE7FEE7E8
:10022000FEE7FEE7FEE7FEE704480549054A064B00
:10023000704700007129000831010008C004002047
:10024000C00A0020C0060020C00600204FF0013C7C
:1002500050F8042B51F8043B9A4221D1A2EB0C0335
:10026000934313EACC1317D150F8042B51F8043BF5
:100270009A4215D1A2EB0C03934313EACC130BD192
:1002800050F8042B51F8043B9A4209D1A2EB0C031D
:10029000934313EACC13DBD04FF00000704700BF4C
:1002A000D01A01BAB1FA81F101F0180122FA01F075
:1002B000CB40C1F12001DBB2C0B2C01A2CFA01F36D
:1002C000D11A914311EAC311E6D1704770477047C4
:1002D0007047754600F02CF8AE4605006946534657
:1002E00020F00700854618B020B5FFF79DFFBDE858
:1002F00020404FF000064FF000074FF000084FF08D
:10030000000B21F00701AC46ACE8C009ACE8C0091D
:10031000ACE8C009ACE8C0098D46704710B504468A
:10032000AFF300802046BDE81040FFF768BF000033
:10033000004870475C04002001491820ABBEFEE76E
:10034000260002007047000010B500200549087023
:1003500000F08CF90121880702F09FFB0020024980
:10036000088010BD1E0000201400002010B54021A0
:10037000074800F031FF4FF4C87000F08BFD4021BA
:10038000034800F027FF03A000F0F0F810BD0000C4
:10039000000801404154000008B54020ADF80000BD
:1003A00003208DF8020010208DF8030069460448F0
:1003B00000F07CFE4021024800F00CFF08BD000068
:1003C0000008014010B5FFF7D1FF40B104A000F0D4
:1003D000CDF84FF4FA7000F05DFD00F011F810BD9B
:1003E00041542B554E504C554700000010B500F0BD
:1003F0005DF800F025F9FFF7CFFF00F00BF810BD16
:1004000010B502A000F0B2F810BD000041542B4519
:100410005849540010B5FFF7A9FF40B104A000F0FF
:10042000A5F84FF4FA7000F035FDFFF7E9FF10BDB5
:1004300041542B534C4545504D4F44453D310000F0
:1004400010B5FFF793FF40B104A000F08FF84FF410
:10045000FA7000F01FFDFFF7D3FF10BD41542B5081
:100460004149520010B5FFF781FF40B104A000F0F0
:100470007DF84FF4FA7000F00DFDFFF7C1FF10BDDD
:1004800041542B52455345540000000010B58021C3
:10049000044800F09FFE002003490870142000F07B
:1004A000F9FC10BD00080140DD01002000B587B057
:1004B0000121880301F0BCFC2A4802F0ADFB4FF497
:1004C0000070ADF8180003208DF81A0018208DF880
:1004D0001B0006A9244800F0E9FD4FF48060ADF848
:1004E000180004208DF81B0006A91F4800F0DEFD4F
:1004F0004FF4165002900020ADF80C00ADF80E003D
:10050000ADF81000ADF814000C20ADF8120002A9EF
:10051000144802F02BFC25208DF8040001208DF8F2
:1005200005008DF806008DF8070001A801F002FB18
:1005300040F226610B4802F054FB40F22771094853
:1005400002F04FFB012240F22551064802F0E9FB80
:100550004021044802F03CFB0121024802F050FB1C
:1005600007B000BD003801400008014070B50446E6
:10057000002507E014F8010B00F040F84FF4FA7082
:1005800000F0AEFC20780028F4D10D2000F036F801
:100590004FF4FA7000F0A4FC0A2000F02FF84FF49A
:1005A000FA7000F09DFC08E0012000F073FC681C6C
:1005B000C5B2C82D01D1002070BD0D4800780028BB
:1005C000F2D00C4800784F280AD10A4840784B28CE
:1005D00006D1002006490870074908700120EBE7A2
:1005E0000020034908700449087000BFE4E70000D8
:1005F000D201002014040020D401002010B50446CC
:100600002146074802F023FC00BF4021044802F0C5
:1006100051FB0028F9D04021014802F0D9FA10BD61
:100620000038014070B505460E46002404E0285D00
:10063000FFF7E4FF601CC4B2B442F8DB70BD0000F9
:1006400008B58020ADF8000003208DF802001020CE
:100650008DF803006946044800F028FD8021024817
:1006600000F0BAFD08BD00000008014010B580216F
:10067000044800F0B1FD012003490870142000F087
:1006800009FC10BD00080140DD01002000BFFEE7AD
:100690000146CAB20B1243EA0220704708B5002097
:1006A000009022E19748008800F00F0096490870FA
:1006B0000846007800287CD1944800689449088056
:1006C0000846008800F03000924908809048008871
:1006D00000F440508E4908808C4909684BF6BF727F
:1006E00001EA020080F4005080F0200040F4004154
:1006F00041F08001854A11608248008800F01000B6
:1007000090BB1046006848F60F710840114608601B
:1007100000F06EFE7D4909684BF6BF7201EA0200E7
:100720007B49098801F4805109B180F480507849EF
:10073000098801F4005109B180F400507549098815
:1007400001F0100109B180F010007249098801F030
:10075000200109B180F0200081B241F4004141F054
:1007600080016A4A116008BDFFE76848006880B2EE
:100770000090BDF8000000F40060B0B3634800686A
:10078000C0F30E0048F68F7108406049086001F020
:10079000E5FD5E4909684BF6BF7201EA02005C495B
:1007A000098801F4805109B180F4805058490988C2
:1007B00000E056E001F4005109B180F400505549C1
:1007C000098801F0100109B180F010005149098831
:1007D00001F0200109B180F0200081B241F4004114
:1007E00041F08001494A1160BDE7FFE7BDF8000014
:1007F00000F40040002878D044480068C0F30E00A0
:1008000048F68F7108404149086001F071FA3F498C
:1008100009684BF6BF7201EA02003D49098801F4FC
:10082000805109B180F480503949098801F40051A0
:1008300009B180F400503749098801F0100109B16D
:1008400080F010003349098801F0200109B180F0DF
:10085000200081B241F4004141F080012B4A116037
:1008600081E7294800782C4901EB8000D0F8000C82
:1008700080B20090BDF8000000F40040C0B12248F2
:10088000007801EB8000D0F8000CC0F30E0048F6B1
:100890008F7108401C4909781F4A02EB8101C1F899
:1008A000000C19490978491E1C4A52F8210080475A
:1008B000BDF8000000F08000B8B113480078164978
:1008C00001EB8000D0F8000C48F60F7108400E498B
:1008D0000978114A02EB8101C1F8000C0A49097834
:1008E000491E0F4A52F821008047084844300068EA
:1008F00080B20449088000F4004000287FF4D2AEA2
:1009000000BF30E718020020E4010020005C004036
:10091000F8010020FA0100200050004040020020B1
:10092000240200200B4A02EB8001D1F8001C01F4E4
:10093000804171B102EB8001D1F8001C48F68F7242
:1009400011404CF280021143024B03EB8002C2F8CB
:10095000001C7047005000400B4A02EB8001D1F8A8
:10096000001C01F0400171B102EB8001D1F8001CC4
:1009700048F68F72114048F2C0021143024B03EB5C
:100980008002C2F8001C704700500040084A02EB89
:100990008001D1F8001C48F68F62114048F28002B5
:1009A0001143034B03EB8002C2F8001C70470000A8
:1009B0000050004010B500201D4948711D480078C6
:1009C000062827D2DFE800F026030A11181F18486E
:1009D000407940F00100164948711CE01448407904
:1009E00040F004001249487115E01148407940F088
:1009F00002000F4948710EE00D48407940F00800B0
:100A00000B49487107E00A48407940F01000084956
:100A1000487100E000BF00BF08210548FFF702FE53
:100A200000200349487108210148FFF7FBFD10BD74
:100A3000D5010020C50100202DE9F04728480068B5
:100A400000F110052E8826480068077AD6B9042FD1
:100A500018D12448007801280FD1002122480068CD
:100A600080B2801C214A42F81010302020490880B2
:100A700000BF00201B49087003E0072710201C4915
:100A8000088027E0AC88A64201D8042000E00220BC
:100A90000746B44200D93446A0B2A96888478046C8
:100AA000002000F0ABFB8146A2B24946404602F06E
:100AB00075FBA1B2002001F079FB2888001B28807B
:100AC000688820446880302009490880000209496C
:100AD000088000BF024909680F72BDE8F087000076
:100AE000E8010020E0010020505C00400060004070
:100AF000FA010020F80100202DE9F04128480068A3
:100B000000F110042688A068C0B1BEB1A588B54226
:100B100000D93546A8B2A168884707462088401BFF
:100B20002080608828446080002000F057FB8046C9
:100B3000AAB24146384601F003F900BF208850B1FF
:100B40004FF44050174908800021084601F02EFB61
:100B50003020154908802088A188884204DB0320C2
:100B60000F490968087218E02088002804DD052074
:100B70000B490968087210E0208870B906200849FE
:100B80000968087200210948006880B2801C084A80
:100B900042F81010302004490880BDE8F0810000C0
:100BA000E8010020F8010020FA010020505C00401C
:100BB000006000402DE9F84F9B4800684578002709
:100BC000BA46062D1BD198480068007800F07F00D7
:100BD000002813D1944909688878012803D19349E2
:100BE0000968CF690AE0022803D1904909680F6AB1
:100BF00004E0032802D18D4909684F6A94E0002D72
:100C000064D189480068408800285FD18648006820
:100C1000C08802285AD1844800680079002855D13C
:100C200081480068007800F07F0028B97E4800689D
:100C3000808808B97E4F77E07B480068007800F034
:100C40007F00012810D178490968487977490968F7
:100C50008A6900219047002866D173480068807A2D
:100C6000002861D0724F5FE06F480068007800F0A4
:100C70007F00022858D16C480068407900F00F06C8
:100C800069480068407900F0700967480068407959
:100C900000F0800038B1674901EB8600D0F8000C05
:100CA00000F0300806E0634901EB8600D0F8000C44
:100CB00000F4405860480078B04235D9B9F1000FCF
:100CC00032D1B8F1000F2FD0594F2DE0082D07D1A8
:100CD00055480068007800F07F0028BB574F23E09C
:100CE0000A2D21D150480068007800F07F000128CB
:100CF0001AD14D480068807AB0B14B4800684088EE
:100D000090B949480068007970B947480068C088C0
:100D1000012809D1444909684879444909688A6920
:100D20000021904700B9464F57B13F480068A0F8EE
:100D300012A03D48006887610020B84700240FE0FA
:100D4000394A12685078394A12681169884704464E
:100D5000032C05D10920344909680872BDE8F88FD1
:100D600031480068008A4FF6FF71884204D109209B
:100D70002D4909680872F1E7022C03D02A4800685F
:100D8000008A20B90820284909680872E6E7264841
:100D90000068007800F08000E0B323480068C08855
:100DA000009021480068008A0099884204D91E49B1
:100DB00000980968088223E01B480068008A1A49E5
:100DC0000968C98888421BDA17480068008A1749F1
:100DD000096891F82C10884203DA0020194908703C
:100DE0000EE011480068008A1049096891F82C103B
:100DF00090FBF1F201FB120010B9012011490870BB
:100E00000A48006890F82C10074800688182FFF7B4
:100E100013FE07E0FFE70320034909680872000397
:100E20000949088000BF99E7E8010020EC01002093
:100E3000FD250008005000406002002081250008C8
:100E4000D1250008E0010020F801002070470000D3
:100E500010B56FF0040001F075FD0A4800680A49FA
:100E6000B0FBF1F0094908700846007800EB40013A
:100E7000C1EBC0104FF6FF7101EAC00004490880C1
:100E800010BD00002000002000127A003400002075
:100E9000360000200146114A12884A434FF0E023F1
:100EA0005A6100229A611A46126942F001021A61DF
:100EB00000BF4FF0E022106900F001021AB100F407
:100EC0008032002AF5D04FF0E022126922F00102B0
:100ED0004FF0E0231A6100229A617047360000202B
:100EE0000146114A12784A434FF0E0235A6100222A
:100EF0009A611A46126942F001021A6100BF4FF06E
:100F0000E022106900F001021AB100F48032002AD8
:100F1000F5D04FF0E022126922F001024FF0E023F9
:100F20001A6100229A6170473400002001200149B3
:100F300008707047FC0100200149086070470000FC
:100F400014040140002123498279002A3AD00A463C
:100F5000126803689A430B461A600A1D12680368F8
:100F60009A430B1D1A60027911440A6803681A43F8
:100F70000A60184A0832126803689A43154B08330E
:100F80001A601A1D126803689A43124B0C331A60D8
:100F90004279102A0ED11A1F126803681A430D4BAA
:100FA00008331A601A1D126803681A43094B0C3380
:100FB0001A600DE00749427911440A6803681A4330
:100FC0000A6005E0027911440A6803689A430A60DE
:100FD0007047000000040140032001490860704789
:100FE000F802002010B504462948844208D10121A6
:100FF000042000F02DFF0021042000F029FF46E02E
:101000002448844208D10121082000F021FF00215A
:10101000082000F01DFF3AE01F48844208D101215A
:10102000102000F015FF0021102000F011FF2EE02D
:101030001A48844208D10121202000F009FF002134
:10104000202000F005FF22E01548844208D101214C
:10105000402000F0FDFE0021402000F0F9FE16E0E7
:101060001048844208D10121802000F0F1FE0021C7
:10107000802000F0EDFE0AE00B48844207D10121F8
:10108000801500F0E5FE0021A01500F0E1FE10BD86
:1010900000080140000C0140001001400014014014
:1010A00000180140001C0140002001402DE9F041E2
:1010B000024600250026002000230024002791F886
:1010C00003C00CF00F0591F803C00CF0100CBCF13C
:1010D000000F03D091F802C04CEA050591F800C05A
:1010E000BCF1000F31D0146800202BE04FF0010C50
:1010F0000CFA00F3B1F800C00CEA03069E4220D1BE
:1011000083004FF00F0C0CFA03F7BC4305FA03FC05
:101110004CEA040491F803C0BCF1280F06D14FF04B
:10112000010C0CFA00FCC2F814C00AE091F803C0EC
:10113000BCF1480F05D14FF0010C0CFA00FCC2F8CD
:1011400010C0401C0828D1D31460B1F800C0BCF115
:10115000FF0F34DD546800202EE000F1080C4FF042
:10116000010808FA0CF3B1F800C00CEA03069E422D
:1011700021D183004FF00F0C0CFA03F7BC4305FAA2
:1011800003FC4CEA040491F803C0BCF1280F05D11C
:1011900000F1080C08FA0CF8C2F8148091F803C0AA
:1011A000BCF1480F07D100F1080C4FF0010808FA14
:1011B0000CF8C2F81080401C0828CED35460BDE85B
:1011C000F0810246002093680B400BB1012000E043
:1011D0000020704741617047016170470146054832
:1011E000006880B200EBC100001D034A32F8100015
:1011F00080B27047505C00400060004001460548E6
:10120000006880B200EBC100034A32F8100080B2DF
:1012100070470000505C00400060004070B50A4814
:101220000468001D0568001D0668344454B1082296
:101230000649204600F014F90422044910312846DA
:1012400000F00EF970BD0000E8F7FF1FFF0100205D
:1012500000BFFEE770B505460C4600F04BF8284687
:1012600000F010F800F092F800B970BD204600F0D0
:1012700009F800F08BF800B9F7E700F061F800BF5B
:10128000F3E7000070B504461948006820F070408C
:10129000174908600846006840F040500860402147
:1012A0001348FFF797FF00251FE0E00920B18021D8
:1012B0000F48FFF791FF03E080210D48FFF78AFFF9
:1012C0006006040E0220FFF70BFE40210848FFF7DE
:1012D00083FF0220FFF704FE40210548FFF77AFF55
:1012E0000220FFF7FDFD681CC5B2082DDDDB70BDD7
:1012F000000C014010B51148006820F070400F4903
:1013000008600846006840F04050086080210B48A3
:10131000FFF762FF40210948FFF75EFF0420FFF757
:10132000DFFD80210548FFF755FF0420FFF7D8FDBA
:1013300040210248FFF74EFF10BD0000000C0140A5
:1013400010B51148006820F070400F490860084649
:10135000006840F04050086040210B48FFF73AFF1A
:1013600080210948FFF736FF0420FFF7B9FD40212F
:101370000548FFF731FF80210348FFF72DFF0420C8
:10138000FFF7AEFD10BD0000000C014010B50024B9
:101390001648006820F0704014490860084600684C
:1013A00040F00040086080211048FFF715FF012041
:1013B000FFF796FD40210D48FFF70EFF0120FFF7D4
:1013C0008FFD07E0601CC4B2FA2C03DDFFF7B8FF05
:1013D000002010BD80210548FFF7F3FE0028F1D161
:1013E00040210248FFF7F6FE0120F2E7000C014021
:1013F00010B518480068047A022C01D0042C05D1DD
:10140000FFF71AFB13480068047A1CE0062C19D178
:1014100010480068407805280ED10E480068007812
:1014200000F07F0040B90B490968C87800F014FE4D
:1014300009490968086A8047084909688868804737
:10144000082400E00824034909680C7200F08CFCB1
:1014500010BD0000E8010020F4010020EC01002094
:1014600030B50B46002100BF16E00A24B4EB107F14
:1014700005D9302404EB107403F8114005E0412431
:1014800004EB10740A3C03F81140000100254C00E5
:10149000641C1D554C1CE1B29142E6DB30BD0000DE
:1014A00070B504460025062C18D11848006800784D
:1014B00000F07F00012811D114480068407968B914
:1014C000124800688078222801D1114D10E00F48A1
:1014D0000068807821280BD10E4D09E00B48006888
:1014E000007800F07F00212802D1032C00D10A4DA2
:1014F0000DB9022070BD05480068856100210348D0
:10150000006841820020A8470020F3E7E80100209E
:1015100075150008451500085915000810B5044652
:101520000249204601F042F810BD0000C002002030
:1015300010B504460249204601F038F810BD0000FD
:10154000B802002010B504460249204601F02EF8EA
:1015500010BD0000D0020020014629B90120034A35
:1015600012681082002070470148FCE7E801002063
:101570005C02002010B504460249204601F016F82E
:1015800010BD0000C802002070B50546064800687E
:10159000C478042C01DD002070BD044800EBC401B8
:1015A000284601F003F8F7E7E8010020D802002000
:1015B0000246002901DD02207047002A01DD0220D9
:1015C000FAE70020F8E7000000B502460648006888
:1015D000007800F07F00212804D10B2A02D100F00E
:1015E00069F800BD0220FCE7E801002010B50020EA
:1015F00023490968887222490968C8722148C0795C
:101600001F4909684872002000F01EFD4FF4007168
:10161000002000F013FE1021002000F0D5FD18215D
:10162000002000F041FD5821002000F0AFFD002017
:10163000FFF7ACF9144890F82C10002000F046FD9C
:10164000002000F089FD4FF4C061012000F0F6FD9C
:101650004FF48071012000F099FD0421012000F079
:10166000A5FD0021012000F057FD2021012000F000
:10167000ABFD002000F0F0FC01200449086010BD23
:10168000E80100207E3B000864020020F8020020F0
:101690000348817A11B10521024A116070470000A8
:1016A00020040020F802002004200149086070474F
:1016B000F802002003480068C17803480160002058
:1016C00070470000E80100205C020020704770476E
:1016D00010B5FFF7A3FD002005490968887200F0E6
:1016E00067FB01F02FFD00200249086010BD0000DB
:1016F000E8010020F802002010B504460822214627
:10170000812001F031FD012000F07EFD10BD0000C0
:1017100010B518480078012814D11748007810280F
:1017200009DC1548007800F097F913480078401C50
:10173000114908701CE010200F49087000200D4965
:10174000087015E00B48007890B90B480078012824
:1017500009DB0948007800F07FF907480078401E4F
:101760000549087004E00120034908700149087028
:1017700010BD00003B00002038000020F0B51546E9
:101780000C46CE1701EB5676C6F3C702164C04EB97
:101790004004A35CA5B10C46CE1701EB5676F610BB
:1017A000A1EBC6070126BE401E43F3B20E4C04EB6C
:1017B0004004A45C1C430C4E06EB4006B45412E0FB
:1017C0000C46CE1701EB5676F610A1EBC6070126A4
:1017D000BE40B343044C04EB4004A45C1C40024EE6
:1017E00006EB4006B454F0BD0403002010B5002001
:1017F00000F000F900F00CF80021084600F039F97B
:1018000000200249087000F03DF810BD3C000020A7
:1018100070B5FFF76FFDE020FFF734FDFFF7B6FD71
:1018200000B970BD0020FFF72DFDFFF7AFFD00B937
:10183000F7E7002411E000250BE0114901EB44011A
:10184000485DFFF71FFDFFF7A1FD00B9E9E7681C40
:10185000C5B2022DF1DB601CC4B2062CEBDB002408
:1018600008E00020FFF70EFDFFF790FD00B9D8E774
:10187000601CC4B2042CF4DBFFF762FD00BFD0E7AC
:101880000403002010B52021E020FFF7E3FC10BD89
:1018900010B5A021E020FFF7DDFC002000F0AAF841
:1018A000FFF7B6FF0448007800F0D6F8002108469C
:1018B00000F0DFF810BD00003800002008B5C0209F
:1018C000ADF8000010208DF8030003208DF8020011
:1018D00069460648FFF7EAFB40210448FFF77CFC15
:1018E00080210248FFF778FC08BD0000000C014091
:1018F00008B504480068009069460348FFF7D6FB26
:1019000008BD0000E83A0008000C014010B500F0E6
:10191000F7F8012000F06EF8FFF77AFF082000F0DA
:101920009BF80021012000F0A4F801200149087073
:1019300010BD00003C00002010B500F0E1F80020D0
:1019400000F058F8012202210846FFF717FF012294
:1019500011460320FFF712FF012202210320FFF7A7
:101960000DFF012203210846FFF708FF01220C2189
:101970000420FFF703FF012208210520FFF7FEFEE8
:10198000012209210520FFF7F9FE01220A21052085
:10199000FFF7F4FEFFF73CFF082000F05DF80021A0
:1019A000012000F066F801200149087010BD000018
:1019B0003C00002010B500F0A3F8002000F01AF859
:1019C000012211460520FFF7D9FE0122062105203C
:1019D000FFF7D4FEFFF71CFF082000F03DF80021C0
:1019E000012000F046F801200149087010BD0000F8
:1019F0003C00002010B50346012B01D1FF2200E07E
:101A0000002200200BE0002105E0064C04EB40041E
:101A100062544C1CE1B20229F7DB441CE0B20628F8
:101A2000F1DB10BD0403002010B50948007801283F
:101A300003D100200649087008E00120044908701D
:101A4000002100F016F800200249087010BD0000C7
:101A50003A0000203900002010B504460F2C00DDAC
:101A60000F24601EC0B240F0E001E020FFF7F2FB5F
:101A700010BD70B505460C460DB334B1012C0ED027
:101A8000022C07D0032C14D10EE08121E020FFF7B7
:101A9000E1FB13E08521E020FFF7DCFB0EE0832172
:101AA000E020FFF7D7FB09E08721E020FFF7D2FB1A
:101AB00004E08121E020FFF7CDFB00BF03E080219F
:101AC000E020FFF7C7FB70BD10B50B480078012878
:101AD00006D10021FFF7CDFF00200749087009E07B
:101AE00002210120FFF7C5FF0120034908700020F3
:101AF0000249087010BD0000390000203A000020A3
:101B000010B52121E020FFF7A5FB10BD0548817A23
:101B100019B10521044A116002E00121024A116055
:101B20007047000020040020F802002000BFFEE7FC
:101B30007047704770B5002100230F22C47804B3AA
:101B4000154C246804F4E064C4F5E064210AC1F192
:101B50000403CA40447804FA03F184781440214312
:101B600009010E4C0678A155047804F01F050124E4
:101B7000AC4005786D11AD0005F1E025C5F80041D8
:101B800009E0047804F01F050124AC40044D0678F8
:101B9000761145F8264070BD0CED00E000E400E051
:101BA00080E100E002490143024A116070470000F1
:101BB0000000FA050CED00E070B502264748006809
:101BC000447846480068007800F07F00002844D13F
:101BD000092C03D100F092FD06465FE0052C14D1DC
:101BE0003E480068C0787F280BDC3C48006880785D
:101BF00038B93A480068808818B938480068807A4F
:101C000008B1082565E0002648E0032C0ED13348D2
:101C10000068C078012807D130480068808818B96A
:101C200000F090FD064639E0022637E0012C35D160
:101C30002A480068C07801280DD1284800688088AB
:101C400048B926480068407A00F0200018B100F03A
:101C5000E1FB064622E0022620E0204800680078EA
:101C600000F07F00012805D10B2C17D100F0E6FD14
:101C7000064613E019480068007800F07F0002284B
:101C80000BD1012C03D100F0C5FB064606E0032C66
:101C900004D100F06BFD064600E002264EB1E0B232
:101CA0000F4A1268516988470646032E01D109255B
:101CB0000FE00EB108250CE0062500210948006858
:101CC00080B2801C084A42F8101030200749088072
:101CD00000BF024909680D7270BD0000E8010020D4
:101CE000EC010020505C004000600040FA01002040
:101CF00010B511480068047A022C01D0042C01D1DF
:101D0000082412E0032C01D0052C05D1FEF7F4FEC7
:101D100009480068047A08E0072C05D107490968DA
:101D2000C8688047082400E00824034909680C7249
:101D300000F01AF810BD0000E8010020EC010020BE
:101D4000F0B5561C7510074E06EB41042B4605E016
:101D500034F8047B20F8017B401C5B1E002BF7D17C
:101D6000F0BD00000060004010B50D4890F82C1048
:101D7000002000F0ABF90B480068007A082805D174
:101D80004002094908801020084908800548006879
:101D9000007A092801D1012010BD0020FCE70000D5
:101DA00064020020E8010020F8010020FA01002070
:101DB00010B5012001F055F801240B480460002003
:101DC0000A49088008460088074908600020091D64
:101DD00008604FF4E0500549088008460088024931
:101DE0000860002010BD0000405C0040F2010020AF
:101DF00029B1064AD2690243044BDA6104E0034A7E
:101E0000D2698243014BDA61704700000010024042
:101E100029B1064A12690243044B1A6104E0034ADD
:101E200012698243014B1A617047000000100240A2
:101E300029B1064A92690243044B9A6104E0034ABD
:101E400092698243014B9A61704700000010024082
:101E500029B1064AD2680243044BDA6004E0034A1F
:101E6000D2688243014BDA607047000000100240E4
:101E700030B500210022002400232D4D6D6805F0AF
:101E80000C0121B1042905D0082923D105E0294DF1
:101E9000056022E0274D05601FE0254D6D6805F4C3
:101EA0007012234D6D6805F48034022505EB9242D3
:101EB0001CB9214D554305600BE01D4D6D6805F4BF
:101EC00000351DB11C4D5543056002E0194D5543C9
:101ED000056002E0174D056000BF00BF144D6D683E
:101EE00005F0F0010909154D6B5C0568DD404560A2
:101EF0000F4D6D6805F4E061090A104D6B5C456893
:101F0000DD4085600A4D6D6805F46051C90A0B4DCE
:101F10006B5C4568DD40C560054D6D6805F440416A
:101F2000890B074D6B5CC568B5FBF3F5056130BDEA
:101F30000010024000127A0000093D00000000205D
:101F4000100000200149086070470000D80042429C
:101F500070B50546072D01D02E4805702D48007834
:101F600008284ED2DFE800F004111A202B384E4F1B
:101F70002948006828B900F053F806202549087060
:101F800002E005202349087041E000F049F80420F0
:101F90002049087001202049086038E002201D49CE
:101FA00048700320087032E01A484078401E1949F2
:101FB00048700846407808B90420087027E01748A0
:101FC000006884B244F010041448046005201149EC
:101FD00008700A2048701AE00E484078401E0D49EB
:101FE00048700846407858B90C48006884B224F01C
:101FF00010040A48046006200870002006490860A2
:1020000005E000BF00BF06200249087000BF00BF06
:1020100070BD0000FD02002000030020405C004075
:1020200010B50748006884B224F004040448046032
:10203000FFF76CFD4FF43F400149086010BD000000
:10204000405C0040704700004FF6F8710140014AC3
:1020500011607047505C004030B501460F4B1A7854
:10206000002014E003060E4C04EB9353D3F8003C1D
:1020700048F68F74234048F280042343C4B22343BC
:102080000406074D05EB9454C4F8003C401C9042F4
:10209000E8D341F08003034C236030BD6002002090
:1020A000005000404C5C004010B54A105300054AF7
:1020B000126892B202EBC002121D034C44F81230B7
:1020C00010BD0000505C00400060004010B50246AA
:1020D0000F48006880B200EBC200801D0D4C04EB7D
:1020E00040033E290BDD481101F01F040CB9441ECA
:1020F000A0B24FF4004444EA80241C6007E048107A
:1021000001F001040CB1441CA0B284021C6010BD9B
:10211000505C00400060004030B50E4C04EB800382
:10212000D3F8003C4BF68F7403EA040201F48053A9
:102130000BB182F4805201F400530BB182F40052CF
:1021400042F4004343F08003024D05EB8004C4F8E1
:10215000003C30BD0050004010B50B4B03EB80023B
:10216000D2F8002C4BF68F7302EA030181F4805100
:1021700081F4005141F4004242F08002024C04EB31
:102180008003C3F8002C10BD0050004010B54A1069
:102190005200044B1B689BB203EBC003024C44F893
:1021A000132010BD505C004000600040044A1268DB
:1021B00092B202EBC002921C024B43F8121070471D
:1021C000505C00400060004030B50E4C04EB8003D2
:1021D000D3F8003C48F6BF7403EA040201F0100390
:1021E0000BB182F0100201F020030BB182F020024B
:1021F00042F4004343F08003024D05EB8004C4F831
:10220000003C30BD0050004010B50B4B03EB80028A
:10221000D2F8002C48F6BF7302EA030181F01001E6
:1022200081F0200141F4004242F08002024C04EBB4
:102230008003C3F8002C10BD0050004010B5074BC0
:1022400003EB8002D2F8002C48F68F131A400A43A1
:10225000024C04EB8003C3F8002C10BD005000407A
:1022600010B500F001F810BD0CB5002001900090F1
:102270003348006840F480303149086000BF30487E
:10228000006800F4003000900198401C0190009814
:1022900018B90198B0F5A06FF1D12948006800F491
:1022A000003010B10120009001E000200090009863
:1022B000012843D12348006840F0100021490860FC
:1022C0000846006820F0070008600846006840F0F3
:1022D000020008601A48406819494860084640688A
:1022E00048600846406840F480604860084640689E
:1022F00020F47C1048600846406840F4E8104860CC
:102300000846006840F08070086000BF0C48006814
:1023100000F000700028F9D00948406820F0030060
:10232000074948600846406840F00200486000BF26
:102330000348406800F00C000828F9D10CBD0000EB
:10234000001002400020024010B50020FFF7FAFD07
:102350000121C805FFF74CFD10BD000038B5012470
:102360002948006880B2001D284931F8100080B269
:1023700001EB4000009026480068007A092832D01E
:10238000009800782249096808700098401C009065
:10239000009800781E49096848700098401C009019
:1023A000009800EB44000090009931F8020B009176
:1023B000FEF76EF9164909684880009800EB440062
:1023C0000090009931F8020B0091FEF761F9104975
:1023D00009688880009800EB44000090009800880D
:1023E0000B490968C8800120094909680872084832
:1023F0000068C08810B9FFF7DFFB01E0FEF7DAFBE9
:10240000FFF7B2FC38BD0000505C004000600040A7
:10241000E80100202DE9F04754480068007800F0FA
:102420007F08B8F1000F0AD150480068407A00F0E8
:10243000DF004E49096848720020BDE8F087B8F116
:10244000020F7CD149480068408818B947480068A5
:10245000007908B10220F0E7DFF8149143480068E2
:10246000477927F080052C4640480068407900F005
:10247000800038B13F4901EB8400D0F8000C00F037
:10248000300606E03B4901EB8400D0F8000C00F474
:10249000405699F80000A84204D91EB1334800689C
:1024A000807A08B90220C8E707F0800080B131497E
:1024B00001EB8400D0F8000C00F0300010284BD164
:1024C000E0B2FEF749FAE0B23021FFF77DFE43E0CB
:1024D000284901EB8400D0F8000C00F44050B0F51E
:1024E000805F39D1E4B9244A92F82C10E0B2FFF7AA
:1024F000EDFD204A02EB8401D1F8001C4BF68F72EF
:1025000001EA020080F4805080F4005040F4004161
:1025100041F08001174B03EB8402C2F8001C1BE062
:10252000E0B2FEF7FFF9134A02EB8401D1F8001C78
:102530004BF68F7201EA020080F4805000E011E057
:1025400080F4005040F4004141F08001094B03EB5E
:102550008402C2F8001C00BF084909684869804726
:1025600000206AE700BF022067E70000E8010020C2
:10257000600200200050004064020020F4010020AE
:1025800010B504462CB901200649096808820020CC
:1025900010BD0549096808688047024800680A308C
:1025A000F6E70000E8010020F401002010B5024623
:1025B00006480068438A32B98888C01A034C2468E8
:1025C0002082002010BD08681844FBE7E8010020C5
:1025D00010B504462CB9012006490968088200207C
:1025E00010BD0549096888688047024800680C30BA
:1025F000F6E70000E8010020F401002010B50446D1
:102600002CB90220394909680882002010BD002039
:102610003749088035480068007800F07F0018BB13
:1026200032490968487A00F0200131B1304909780F
:1026300041F002012E4A117005E02D49097801F0A0
:10264000FD012B4A117000F0400131B12849097891
:1026500041F00101264A117005E02549097801F091
:10266000FE01234A11703AE020480068007800F02B
:102670007F00012801D11E48C8E71C480068007887
:1026800000F07F00022828D1184A1268517901F021
:102690000F0001F080027AB1164B03EB8002D2F8F2
:1026A000002C02F03002102A16D1114A127842F0A2
:1026B00001020F4B1A700FE00E4B03EB8002D2F8B1
:1026C000002C02F44052B2F5805F05D1084A12781E
:1026D00042F00102064B1A7001E0002096E706491D
:1026E000096808698047024890E70000E801002077
:1026F000DE01002000500040F401002010B50E481B
:102700000068C0780D494978884213DC0A4800689F
:10271000807878B908480068808858B90648006809
:10272000C078054909688872054909684868804782
:10273000002010BD0220FCE7E8010020600200201C
:10274000F401002010B507480068407A40F02000EE
:1027500004490968487204490968C869804700202B
:1027600010BD0000E8010020F40100202DE9F04137
:102770002E480068467926F080073C462B480068C2
:10278000407900F0800038B1294901EB8400D0F88D
:10279000000C00F0300506E0254901EB8400D0F87C
:1027A000000C00F4405523480078A04208D91F4887
:1027B0000068408820B91DB11C480068807A10B9B3
:1027C0000220BDE8F08106F08000A0B1184A02EBBB
:1027D0008401D1F8001C48F6BF7201EA020080F0C3
:1027E000100040F4004141F08001114B03EB8402E2
:1027F000C2F8001C14E00E4A02EB8401D1F8001C60
:102800004BF68F7201EA020080F4805040F40041E0
:1028100041F08001064B03EB8402C2F8001C00BFAC
:1028200005490968886980470020CAE7E801002057
:102830000050004060020020F401002010B5174B4A
:102840001B68D978154B1B685879154B1B689A691A
:102850009047044611480068807AE8B13CB90F48B7
:102860000068007918B90D480068807808B1022026
:1028700010BD8CB90B490968C868804707480068D3
:10288000407906490968C87204480068C07803495D
:10289000096808730020EBE70220E9E7E80100205F
:1028A000EC010020F401002038B500250020009044
:1028B0002148006884B200BF09E0204901EB85008F
:1028C000D0F8000C80B21E4941F825006D1C082D7F
:1028D000F3D344F480641848046044F001040460B5
:1028E00024F00104046000BF1348001D006800F4D8
:1028F00080600028F8D04FF6FF300F49091D0860AE
:10290000002509E00E4850F8250080B20B4A02EB82
:102910008501C1F8000C6D1C082DF3D344F00804A8
:1029200005480460006884B244F00404024804606E
:10293000FEF752FB38BD0000405C004000500040F4
:102940003C040020042808D14FF0E021096941F03F
:1029500004014FF0E022116107E04FF0E021096926
:1029600021F004014FF0E022116170477047000030
:1029700010B51348006840F001001149086008468E
:102980004068104908400E494860084600680E49F2
:1029900008400B4908600846006820F48020086061
:1029A0000846406820F4FE0048604FF41F0088602D
:1029B000FFF756FC4FF000600449086010BD0000AE
:1029C000001002400000FFF8FFFFF6FE08ED00E0F7
:1029D00010B50121880700F06CF818B301218807B1
:1029E00000F058F810480078401C0F49087001208A
:1029F0000E4908700C480078142807D100200A49B5
:102A000008700B480088401C09490880064908786E
:102A1000C11700EB91718910A0EB810111B9012060
:102A20000449087010BD00001600002018000020A6
:102A300014000020170000207FB505460C46012138
:102A40000846FFF7D5F9ADF80850ADF8044000206E
:102A5000ADF80A00ADF8060001A94FF0804000F083
:102A600043F801221146900700F034F81C208DF83D
:102A7000000000208DF8010002208DF802000120E6
:102A80008DF803006846FFF755F80121880700F02C
:102A900004F87FBDCA430282704721B1028842F028
:102AA0000102028004E002884FF6FE731A400280A1
:102AB000704730B50246002000230024158A05EA3D
:102AC0000103958905EA010413B10CB1012000E06E
:102AD000002030BD1AB183890B43838102E08389D2
:102AE0008B43838170470000002202881D4B98426F
:102AF0000ED01D4B98420BD0B0F1804F08D01B4B2D
:102B0000984205D01A4B984202D01A4B984204D1F1
:102B10004FF68F731A404B881A43174B984207D0D1
:102B2000164B984204D04FF6FF431A40CB881A4305
:102B300002808B8883850B8803850A4B98420BD0D3
:102B4000094B984208D00E4B984205D00D4B984245
:102B500002D00D4B984201D10B7A03860123838268
:102B600070470000002C0140003401400004004088
:102B700000080040000C004000100040001400401D
:102B800000400140004401400048014010B540F2BF
:102B900025510B4800F09BF880B1094800F052F92C
:102BA000C4B2084801780078401C064A10700648F4
:102BB00044540A2C02D101200449087010BD0000C1
:102BC00000380140D401002014040020D20100206C
:102BD00001F40072B2F5007F00D100BFCA43028049
:102BE000704710B50022002340F66A14A14200D1BC
:102BF00000BF0A1201249440A3B2DC43048010BD3C
:102C000021B1828942F40052828104E082894DF62A
:102C1000FF731A408281704710B5044620488442F1
:102C200009D101218803FFF713F900214FF48040F7
:102C3000FFF70EF932E01B48844209D10121480414
:102C4000FFF7E6F800214FF40030FFF7E1F825E048
:102C50001548844209D101218804FFF7D9F80021E1
:102C60004FF48020FFF7D4F818E01048844209D1CF
:102C70000121C804FFF7CCF800214FF40020FFF732
:102C8000C7F80BE00A48844208D101210805FFF784
:102C9000BFF800214FF48010FFF7BAF810BD000014
:102CA000003801400044004000480040004C004013
:102CB0000050004002460020B1F5007F00D100BF67
:102CC00013880B400BB1012000E00020704770B565
:102CD0000246002400230025002040F66A16B14277
:102CE00000D100BFC1F3421501F01F03012606FA0F
:102CF00003F3012D02D19689334006E0022D02D163
:102D0000168A334001E0968A33400C12012606FAF7
:102D100004F41688344013B10CB1012000E0002007
:102D200070BDF0B50346002400260025002040F6C3
:102D30006A17B94200D100BF1846C1F3421401F02E
:102D40001F06012707FA06F5012C01D10C3004E01B
:102D5000022C01D1103000E014301AB107682F4363
:102D6000076002E00768AF430760F0BD2DE9F04758
:102D700086B005460E460024A24600BFA1460027A5
:102D8000B08900B100BF2F462C8A4CF6FF7004407A
:102D9000F08804432C82AC894EF6F3100440B088CE
:102DA00031890843718908430443AC81AC8A4FF6EA
:102DB000FF400440B0890443AC8201A8FFF758F8F3
:102DC0001F48874202D1DDF810A001E0DDF80CA019
:102DD000A88900F4004040B10AEBCA0000EB0A10D9
:102DE00031684900B0FBF1F807E00AEBCA0000EBDC
:102DF0000A1031688900B0FBF1F86420B8FBF0F0EC
:102E000004012009642101FB1089A88900F4004015
:102E100040B1322000EBC900B0FBF1F000F0070038
:102E2000044308E0322000EB09106421B0FBF1F00C
:102E300000F00F0004432C8106B0BDE8F0870000CD
:102E40000038014001468888C0F308007047C1F38C
:102E500008028280704710B54FF48020FEF76CF8AE
:102E600010BD704710B5084808490860022009687D
:102E7000087207480749086007480849086005497B
:102E800009680868804710BD20040020E801002080
:102E900064020020EC01002094020020F4010020D4
:102EA0000EB54FF48020FEF747F84FF480200090D5
:102EB00008208DF8050001208DF806006846FEF711
:102EC00041F814208DF8080001208DF80900002039
:102ED0008DF80A0001208DF80B0002A8FEF72AFEEB
:102EE0002A208DF8080000208DF8090002A8FEF7BE
:102EF00021FE0EBD10B588B00024684800686849FE
:102F000008800846008800F40040664909880840A7
:102F100008B1FDF7C3FB6248008800F48060614996
:102F20000988084030B14FF6FF305C4908605E49BF
:102F3000486880475A48008800F400505949098879
:102F4000084018B14DF6FF70544908605448008895
:102F500000F4805053490988084030B14EF6FF70A4
:102F60004E4908600020FEF7F3FF4D48008800F44A
:102F700000604C490988084060B14C48007810B1A5
:102F8000FFF792FC02E00220FEF7E2FF4FF2FF7033
:102F9000424908604248008800F4007041490988AD
:102FA000084040B14FF6FF503C4908604048007867
:102FB000401C3F4908703A48008800F48070394945
:102FC00009880840002866D04FF6FF603349086042
:102FD000081D006800F40040002856D035480068FD
:102FE000401C3449086008460068032850D92B4823
:102FF000001F006800F00800002849D12748001F82
:10300000006880B22C490860002408E02B4901EBDD
:103010008400D0F8000C80B24DF82400641C082C09
:10302000F4D32548006840F00100234908600846B1
:10303000006880B21949091F08601F48006820F025
:1030400001001D4908600846006880B21349091F45
:10305000086000BF1148006800F480600028F9D0C3
:103060004FF6FF300D490860002408E05DF82400A9
:1030700080B2124A02EB8401C1F8000C641C082CD7
:10308000F4D300200B49086002E0002009490860E1
:103090000720FEF75DFF08B010BD0000445C004053
:1030A00018020020F201002064020020FC0200202F
:1030B0001A0200201C0200202002002000500040C4
:1030C00010B5FFF717FF10BD10B5012005490870B6
:1030D000FDF7DCF900200449088001218807FFF78B
:1030E000DCFC10BD1E0000201400002038B5044692
:1030F00001210420FEF79CFE74B14FF4C050ADF8DE
:10310000000003208DF8020018208DF803006946A6
:103110000B48FDF7CBFF12E04FF4C050ADF80000B4
:1031200003208DF8020010208DF803006946044842
:10313000FDF7BCFF4FF4C0510148FEF74BF838BD16
:10314000000801400020064908604FF43F4005494F
:103150000880084600880249091F0860002070475F
:10316000445C0040F20100202DE9F04104460E4687
:10317000154604F07F00FEF741F80746AAB239462B
:10318000304600F00BF8A9B204F07F00FFF70EF80C
:103190000020BDE8F08100BFFEE70000F0B5144656
:1031A00004F1010C4FEA6C07DFF824C00CEB41037B
:1031B0003D460AE00678401C90F800C046EA0C2222
:1031C00023F8022B9B1C401C6D1E002DF2D1F0BD7C
:1031D0000060004000F052FCFDF748FAA7E05448B8
:1031E000007800284BD053480088B0F57A7F12DC75
:1031F00000F07AFA5048007801280BD100204D49A0
:1032000008804D4908704D4800680528F5D14C48A4
:10321000FEF772FA80E04B48007800BB00F064FAD9
:1032200045480078012877D1002043490870434879
:103230000068052802D14248FEF75EFA01204149A4
:10324000087001218007FFF728FC00203949088019
:103250003D48007800285FD0FEF752FC5CE035481E
:103260000088B0F57A7F57DD00214FF08040FFF7EE
:1032700014FC002033490870FEF704FB4CE02D4895
:103280000088B0F5C87F15DC30480078012811D1DE
:1032900000F02AFA2848007801283DD1002026496C
:1032A00008700C212648001FFDF7BCF900202149B9
:1032B000088031E025480078E8B900F015FA1E488A
:1032C0000078012828D11F490870FDF7CFF90121A6
:1032D0008807FFF7E2FB00201649088016490870AE
:1032E0001948007808B1FEF70BFC0C211448001FA8
:1032F000FDF798F910E00F480088B0F5C87F0BDDA6
:10330000FDF7C4F800214FF08040FFF7C6FB002016
:103310000C490870FEF76AFA0D48007838B10D487C
:10332000007820B1FEF7F4F900200A49087056E74A
:103330001E00002014000020C4010020F80200201C
:10334000CA0100201A0000203C000020DD010020FE
:103350003A0000201700002070B504460D463A4997
:1033600001EB841151F8250038A1FCF76FFF30B94B
:103370003848007840F002003649087062E032496F
:1033800001EB841151F8250033A1FCF75FFF30B940
:103390003048007840F020002E49087052E02A4959
:1033A00001EB841151F825002DA1FCF74FFF30B936
:1033B0002848007840F001002649087042E0224980
:1033C00001EB841151F8250027A1FCF73FFF30B92C
:1033D0002048007840F010001E49087032E01A4979
:1033E00001EB841151F8250021A1FCF72FFF30B922
:1033F0001848007840F004001649087022E012498D
:1034000001EB841151F825001BA1FCF71FFF30B917
:103410001048007840F040000E49087012E00A4958
:1034200001EB841151F8250015A1FCF70FFF30B90D
:103430000848007840F008000649087002E00020C3
:103440001049087070BD0000400000204C536869AE
:1034500066740000C0010020525368696674000061
:103460004C4374726C000000524374726C00000094
:103470004C416C740000000052416C74000000006C
:1034800057696E00C301002008B53F20ADF8000069
:1034900003208DF8020028208DF8030069461048AB
:1034A000FDF704FE4FF47040ADF8000003208DF8E6
:1034B000020010208DF8030069460A48FDF7F6FD6A
:1034C00040F6FF70ADF8000003208DF802001020D8
:1034D0008DF8030069460448FDF7E8FD08BD0000CB
:1034E00000080140000C01400010014070B5064684
:1034F00000241EE0002518E0104901EB841151F86A
:1035000025003146FCF7A2FE68B90D4800EB041017
:10351000405D08B9002070BD0020094901EB04118D
:1035200048550120F7E7681CC5B2102DE4DB601C8C
:10353000C4B2062CDEDB0020EDE7000040000020D6
:103540002203002000201AE000210FE0184A02EBBD
:1035500000125256174B03EB00135B569A4203D0EE
:103560000122154B1A7003E04A1CD1B21029EDDB81
:1035700000BF114A127802B103E0421CD0B2062803
:10358000E2DB00BF00200FE0002109E0094A02EB66
:103590000012525C064B03EB00135A544A1CD1B282
:1035A0001029F3DB421CD0B20628EDDB7047000087
:1035B0008203002022030020C201002010B5002455
:1035C00006E00A4A21460A4800F016F8601CC4B218
:1035D000042CF6DB042406E0044A2146054800F0EA
:1035E0000BF8601CC4B2102CF6DB10BD4C3B00087D
:1035F000000C01400010014070B506460C4615460F
:1036000035F814103046FDF7E7FD0220FDF768FCA1
:1036100001213348FDF7D5FD18B1FF203149085588
:1036200002E000202F4908553220FDF759FC022105
:103630002B48FDF7C6FD20B1FF212A481030015567
:1036400003E000212748103001550120FDF748FC18
:1036500004212348FDF7B5FD20B1FF21214820308A
:10366000015503E000211F48203001550120FDF7DE
:1036700037FC08211A48FDF7A4FD20B1FF211948A5
:103680003030015503E0002116483030015501204B
:10369000FDF726FC10211248FDF793FD20B1FF2114
:1036A00010484030015503E000210E4840300155DC
:1036B0000120FDF715FC20210948FDF782FD20B10E
:1036C000FF2108485030015503E0002105485030E3
:1036D000015535F814103046FDF77CFD70BD000033
:1036E000000801402203002010B5FFF767FFFFF735
:1036F00029FF0648007838B100200449087000F01E
:1037000009F801200249087010BD0000C201002024
:10371000C40100202DE9F04100270020AE490870C7
:10372000AE4890F95600401C00282ED1ACA0FFF7FF
:10373000DDFE18B10220AB4908701EE0AAA0FFF719
:10374000D5FE18B10320A749087016E0A7A0FFF71F
:10375000CDFE18B10120A34908700EE0A4A0FFF728
:10376000C5FE18B104209F49087006E0A1A0FFF72C
:10377000BDFE10B105209B4908709A48007820B121
:10378000FDF718F9002097490870944890F9550002
:10379000401C00280BD198A0FFF7A8FE58B197480D
:1037A000007828B9FFF790FC00209549087092E056
:1037B000FCF7CAFD8FE093A0FFF798FED0B18F48C9
:1037C00000780028F3D08E48007838B9012190485D
:1037D000FDF702FD01208A4908707CE088480078E6
:1037E000002878D001218A48FDF7F4FC00208449A4
:1037F000087070E087A0FFF779FE10B1FCF7E2FDDA
:1038000069E086A0FFF772FE10B1FCF719FE62E0D6
:1038100084A0FFF76BFE10B1FCF724FE5BE083A0F1
:10382000FFF764FE10B1FCF731FE54E080A0FFF713
:103830005DFE10B1FEF748F94DE06EA0FFF756FEB1
:1038400010B1FEF7F1F846E07AA0FFF74FFE00282E
:1038500041D179A0FFF74AFE10B1FEF7ABF83AE08C
:1038600076A0FFF743FE10B1FEF766F833E074A0D0
:10387000FFF73CFE10B1FEF749F82CE071A0FFF70E
:1038800035FE80B170480078401C6F4908700846CA
:103890000078FEF7E1F86C48007810281BDD102056
:1038A0006949087017E069A0FFF720FE68B1664813
:1038B0000078002804DD64480078401E62490870E2
:1038C00061480078FEF7C8F805E061A0FFF70EFE3A
:1038D00008B1FDF78BFF002418E004EB44005D49BC
:1038E000085C88B104EB4400084440783B4901EB94
:1038F000001004EB4401574A11448978405C18B920
:10390000002004EB44015054601CC4B2062CE4DBDC
:1039100000244BE0002645E0304800EB04108057BF
:10392000401C98BB31462046FFF716FD4A480078F8
:1039300060BB00250DE005EB45004649085C4749A2
:1039400001EB0411895D884201D1012703E0681C65
:10395000C5B2062DEFDB00BFF7B9002519E005EB76
:1039600045003C49085C90B93C4800EB0410805D80
:1039700005EB4501374A505405EB45001146084414
:10398000447005EB45000844867004E008E0681CBC
:10399000C5B2062DE3DB00E0002701202E490870A8
:1039A000701CC6B2102EB7DB601CC4B2062CB1DB93
:1039B000094800782A490871002508E005EB450010
:1039C0002449095CA81D264A1154681CC5B2062D5D
:1039D000F4DBBDE8F0810000C001002022030020DC
:1039E00046380000C5010020463700004639000077
:1039F0004631300046313100463600001E000020BE
:103A0000C10100205363726F6C6C4C6F636B0000DC
:103A1000000C014044656C6574650000496E736577
:103A200072740000486F6D6500000000456E640010
:103A30004631320046340000463300004632000072
:103A4000463100002B000000380000202D0000004F
:103A50004573630010030020C3010020EC3A000806
:103A6000C601002010B50120FFF740FBFFF718FA50
:103A7000FEF76AFCFFF7F6F910BD000010B5174815
:103A8000FDF7B0FA1648FDF7ADFA1648FDF7AAFAA9
:103A900001210420FEF7CCF901210820FEF7C8F926
:103AA00001211020FEF7C4F94FF4A060FEF77AF868
:103AB000FDF7CEF9FFF7E8FCFCF798FCFDF718FFDF
:103AC000FDF7FCFEFDF7E4FE4FF461614FF47A7000
:103AD000FEF7B2FFFFF7C6FF10BD0000000801406F
:103AE000000C01400010014001000310293A3B3C4A
:103AF0003D3E3F404142434445464C004A351E1F2F
:103B000020212223242526272D2E2A004B2B141A70
:103B10000815171C180C12132F3028004E390416E4
:103B200007090A0B0D0E0F33343100004D001D1B29
:103B300006190511103637380052000082000000C7
:103B40002C00002C0000504F5100000000100020FD
:103B500000400080400080000001000210002000B2
:103B60000004010002000400080000081201000225
:103B700000000040786712010002010203010902FF
:103B80002900010100C03209040000020301010004
:103B9000092110012101223D000705810308000AC7
:103BA0000705010301000A05010906A1010507191E
:103BB000E029E71500250195087501810295017539
:103BC0000881039506750825FF19002965810025E0
:103BD00001950275010508190129029102950175E7
:103BE000069103C0040309042603530054004D004A
:103BF0006900630072006F0065006C00650063007F
:103C0000740072006F006E00690063007300280387
:103C10004C00580047002D0057004F0052004C0048
:103C200044002000450044004900540020001B527D
:103C3000164E004EF7530000210000002300000044
:103C400024000000250000002600000027000000DE
:103C500028000000290000002A0000002B000000BE
:103C60002C0000002D0000002E0000002F0000009E
:103C700046313000463131004631000046313200D5
:103C8000463200004633000046340000463500004E
:103C9000463600004637000046380000463900002E
:103CA0003B00000040000000410000004200000016
:103CB00043000000440000004500000046000000F2
:103CC0004700000048000000490000004A000000D2
:103CD0004B0000004C0000004D000000464E00006C
:103CE0004E0000004F000000500000005100000096
:103CF0005200000053000000540000005500000076
:103D00005600000057000000580000005900000055
:103D10005A0000005E00000054616200507274534B
:103D20006300000045736300456E64004261636B8D
:103D30005370616365000000486F6D65000000000E
:103D400044656C6574650000436170734C6F636B10
:103D5000000000004C4374726C0000005243747207
:103D60006C00000057696E0050616765446F776EA4
:103D7000000000005061676555700000536C656578
:103D800070000000456E7465720000004C6566743A
:103D9000000000004C536869667400005253686963
:103DA0006674000052696768740000004C416C74CE
:103DB0000000000052416C74000000004D656E75FB
:103DC000000000007B0000007C0000007D0000007F
:103DD0007E00000000000000F83D00080000002008
:103DE000040300006C010008A83F00080403002041
:103DF000BC070000C8010008412D01020304046053
:103E000009060708090204060812011A5004118461
:103E1000A24A0469244159251113243D1408783C11
:103E20001B0880041A84041A88041A8C041A90044B
:103E30001A94041A98041A9C041A70041A74041A26
:103E40007C041A1C341A40041AD4041A38042AD0E8
:103E50000819181AA4041A3C041A40041A44041A33
:103E600014181A48081A58041A50041A54041A64E8
:103E7000041A5C045A2C401A74041A18041AEC141C
:103E80001A04081AB8081AF0041AF8041A0C101ABE
:103E9000FC081AC8041AE4041AE8041AC4141ACC58
:103EA000045A84402A686419041AA81C1AF4041AD3
:103EB000B4041ABC042AC02C19041ACC041AD00465
:103EC0001AD4041AA0042A4C50593C29041A280474
:103ED0001A94041A10041A08041AB0201119081AA6
:103EE000AC081AE0041AD8041A60041A68041A6CA0
:103EF000041A9C1C9A78401A7C041A54042A6434CC
:103F000019041A30041ABC041ADC2C290C1AB40443
:103F10001A5C041A8C041AA4049A6C3C29043122F9
:103F200001120C1AA1069112080323A10315011A0C
:103F300003531254124D1233021C32132D0F0C3046
:103F400008331B04411A029813D1161408ED151BEF
:103F500008CD081ACF0413A1141B08C9101AB10404
:103F60001A31041A1D041A8904413240293C1A915D
:103F7000280916581AA91C136C3B3308121A7E081C
:103F800032291AA708323D1A900832091AE4083279
:103F9000041AE8083226130E3C33082813FD017377
:083FA000201A199B51000000DA
:0400000508000131BD
:00000001FF
